:100000000C94A20B0C94CA0B0C94CA0B0C94CA0B44
:100010000C94CA0B0C94CA0B0C94CA0B0C94CA0B0C
:100020000C94CA0B0C94CA0B0C94B61D0C94281E8D
:100030000C94CA0B0C94CA0B0C94CA0B0C94CA0BEC
:100040000C94CA0B0C94CA0B0C94CA0B0C94CA0BDC
:100050000C94CA0B0C94CA0B0C94CA0B0C947C190C
:100060000C94CA0B0C94CA0B0C94CA0B0C94CA0BBC
:100070000C94CA0B0C94CA0B0C94CA0B0C94CA0BAC
:100080000C94721A0C94CA0B0C94CA0B0C94CA0BE5
:100090000C94CA0B0C94CA0B0C94CA0B0C94CA0B8C
:1000A0000C94CA0B0C94CA0B0C94CA0BCF23D2230A
:1000B000D523D823DB23DE23E123A918AC189B1812
:1000C0009F18A318CD18CD18CD18B018B418B818AB
:1000D000BE18C218CD18C818000000002400270060
:1000E0002A002D003000D5F08D14A1C881CFD9F1A0
:1000F000AF200004080201104080401020408040E2
:10010000800802040180402010020110801020406D
:10011000402000000000250028002B002E003100A8
:10012000040404040403040502020202040302029C
:10013000020206060606060604040202020404146D
:1001400002130212021502070208020A020A010B38
:10015000020B010902090104010C0106010003FD63
:1001600007FD0FFD0FFD0FFD0FFD07FD070300FF4E
:1001700000FF00FF00FF00FF00FF00FF000000F095
:1001800010D65212121212121252D610F00000F0B3
:1001900010D652121212121212121212121212123D
:1001A000121212121212121212121212121212122F
:1001B00012121212121212121252D610F0007E7E79
:1001C0007E5E5E5E2424242424241818181818182F
:1001D00000000000000000347A7A7A7A343C765DC0
:1001E000415F7B111B1F000000001F8038C00E7C88
:1001F0000F040FFE0FFA1FFA3FFE3FFC3F801F80E7
:10020000038000000000181824245AC37E3C00001C
:1002100000001C66DBFD1818E0E0E0E0C0E0E0E074
:10022000E0E0E0E0E0E0E0E0E0E0C0E0E0E0E000CE
:10023000000303070707FFFFFFFFFFFFFFFFFFFFAD
:10024000FFFF070303030000000000000000010798
:100250000F1F1F3F3F1F1F0F07000000000000007F
:100260000000000000040010204000540040201056
:100270000004000000000000071F1F3F3E3FFFFF7B
:10028000FFFFFEFFFFFEFFFFFFFF3E1F1F1F0700D8
:10029000000000000000071F1F3F3F7F7F3F3F1F00
:1002A0001F0300000000000018180040C08080807C
:1002B000C00080C0C0C0C0C0C00040808080C040BE
:1002C000000000000101030300DE9F39311F1339D4
:1002D0003B9F1C0101010100000000000000000024
:1002E00000000307050F0D070501000000000000D6
:1002F00000000000000000000000000000000000FE
:100300000000000000000000000000020E0C1C1C99
:1003100006F0FCCC8CFC9CCCDCF8E20C0C0C0E0245
:10032000000000000000000000020E0D051C140D6E
:1003300005060000000000000000003C4E5A5E521E
:100340003C0000000000FEFEFEFE82828282FAFA7D
:10035000FAFAEAEAEAEAFAFAFAFABABABABA82822D
:100360008282BEAABEBEBEAEA622A6AEBEBEBEAA39
:10037000BE00FFBEFEFAFE80FF00FFBEFEFAFE805A
:10038000FF00F40164002C016400640064002C018F
:100390006400F40164003200A0000080000000004E
:1003A000007FF80000FFFE0001FFFF8003FFFFE079
:1003B00007FFFFE00FFFFFF01FFFFFF01F1FF838E0
:1003C0001CEFFBD81BF7F3EC1BF7F7EC3BF7F7EC54
:1003D00039E7F3CC3E1FFC3C3FFDBFFC3FFDBFFCBB
:1003E0003FF99FFC1FFFFFFC1FFFFFF807FFFFF017
:1003F00003FFFFE001FFFF80007FFF00001EED0014
:10040000004EED00004EEF00007EEF00003FFE00CA
:10041000000FF8000000000000000000FFFFFFFFD9
:10042000FFFFFFFF0055AAFFDDFFF7FFFFFFFFFF04
:10043000FFFFFFFFFFFFFFFFFFFFFFFFFFFFFFFFCC
:10044000FFFFFFFF0055AAFFDDFF7FFFFFFFFFFF5C
:10045000FFFFFFFFFFFFFFFFFFFFFFFFFFFFFFFFAC
:10046000FFFFFFFF0055AAFFDD7FFFFFFFFFFFFF3C
:10047000FFFFFFFFFFFFFFFFFFFFFFFFFFFFFFFF8C
:10048000FFFFFFFF0055AAFFDDFFF7FFFFFFFFFFA4
:10049000FFFFFFFFFFFFFFFFFFFFFFFFFFFFFFFF6C
:1004A000FFFFFFFF0055AAFFDDFF7FFFFFFFFFFFFC
:1004B000FFFFFFFFFFFFFFFFFFFFFFFFFFFFFFFF4C
:1004C000FFFFFFFF0055AAFFDDFF7FFFFFFFFFFFDC
:1004D000FFFFFFFFFFFFFFFFFFFFFFFFFFFFFFFF2C
:1004E000FFFFFFFF0055AAFFDDFF7FFFFFFFFFFFBC
:1004F000FFFFFFFFFFFFFFFFFFFFFFFFFFFFFFFF0C
:10050000FFFFFFFF0055AAFFDDFFFFFFFFFFFFFF1B
:10051000FFFFFFFFFFFFFFFFFFFFFFFFFFFFFFFFEB
:10052000FFFFFFFF0055AAFFDDFFF7FFFFFFFFFF03
:10053000FFFFFFFFFFFFFFFFFFFFFFFFFFFFFFFFCB
:10054000FFFFFFFF0055AA7FDDFFF7FFFFFFFFFF63
:10055000FFFFFFFFFFFFFFFFFFFFFFFFFFFFFFFFAB
:10056000FFFFFFFFFFFFFFFFFFFFFFFFFFFFFFFF9B
:10057000FFFFFFFFFFFFFFFFFFFFFFFFFFF7FFDDB5
:10058000FFAA5500FFFFFFFFFFFFFFFFFFFFFFFF79
:10059000FFFFFFFFFFFFFFFFFFFFFFFFFF7FFFDD0D
:1005A000FFAA5500FFFFFFFFFFFFFFFFFFFFFFFF59
:1005B000FFFFFFFFFFFFFFFFFFFFFFFFFFFF7FDDED
:1005C000FFAA5500FFFFFFFFFFFFFFFFFFFFFFFF39
:1005D000FFFFFFFFFFFFFFFFFFFFFFFFFFF7FFDD55
:1005E000FFAA5500FFFFFFFFFFFFFFFFFFFFFFFF19
:1005F000FFFFFFFFFFFFFFFFFFFFFFFFFF7FFFDDAD
:10060000FFAA5500FFFFFFFFFFFFFFFFFFFFFFFFF8
:10061000FFFFFFFFFFFFFFFFFFFFFFFFFF7FFFDD8C
:10062000FFAA5500FFFFFFFFFFFFFFFFFFFFFFFFD8
:10063000FFFFFFFFFFFFFFFFFFFFFFFFFF7FFFDD6C
:10064000FFAA5500FFFFFFFFFFFFFFFFFFFFFFFFB8
:10065000FFFFFFFFFFFFFFFFFFFFFFFFFFFFFFDDCC
:10066000FFAA5500FFFFFFFFFFFFFFFFFFFFFFFF98
:10067000FFFFFFFFFFFFFFFFFFFFFFFFFFF7FFDDB4
:10068000FFAA5500FFFFFFFFFFFFFFFFFFFFFFFF78
:10069000FFFFFFFFFFFFFFFFFFFFFFFFFFF7FFDD94
:1006A0007FAA5500007E6A7E7A7E7A7E7A7E7A7E86
:1006B0007A7E6A7E007E6A7E7A7E7A7E7A7E7A7E14
:1006C0007A7E6A7E007E6A7E7A7E7A7E7A7E7A7E04
:1006D0007A7E6A7E007E6A7E7A7E7A7E7A7E7A7EF4
:1006E0007A7E6A7E007E6A7E7A7E7A7E7A7E7A7EE4
:1006F0007A7E6A7E007E6A7E7A7E7A7E7A7E7A7ED4
:100700007A7E6A7E007E6A7E7A7E7A7E7A7E7A7EC3
:100710007A7E6A7E007E6A7E7A7E7A7E7A7E7A7EB3
:100720007A7E6A7E007E6A7E7A7E7A7E7A7E7A7EA3
:100730007A7E6A7EFFFFFFFFFFFFFFFFFFFFFFFFE5
:10074000FFFFFFFFFFFFFFFFFFFFFFFFFFFFFFFFB9
:10075000FFFFFFFFFFFFFFFFFFFFFFFFFFFFFFFFA9
:10076000FFFFFFFFFFFFFFFFFFFFFFFFFFFFFFFF99
:10077000FFFFFFFFFFFFFFFFFFFFFFFFFFFFFFFF89
:10078000FFFFFFFFFFFFFFFFFFFFFFFFFFFFFFFF79
:10079000FFFFFFFFFFFFFFFFFFFFFFFFFFFFFFFF69
:1007A000FFFFFFFFFFFFFFFFFFFFFFFFFFFFFFFF59
:1007B000FFFFFFFFFFFFFFFFFFFFFFFFFFFFFFFF49
:1007C000FFFFFFFF6D5F6B5F6D5F6B5F6D5F6B5F6B
:1007D0006D5F6B5F6D5F6B5F6D5F6B5F6D5F6B5FC1
:1007E0006D5F6B5F6D5F6B5F6D5F6B5F6D5F6B5FB1
:1007F0006D5F6B5F6D5F6B5F6D5F6B5F6D5F6B5FA1
:100800006D5F6B5F6D5F6B5F6D5F6B5F6D5F6B5F90
:100810006D5F6B5F6D5F6B5F6D5F6B5F6D5F6B5F80
:100820006D5F6B5F6D5F6B5F6D5F6B5F6D5F6B5F70
:100830006D5F6B5F6D5F6B5F6D5F6B5F6D5F6B5F60
:100840006D5F6B5F6D5F6B5F6D5F6B5F6D5F6B5F50
:100850006D5F6B5FFAD6FAB6FAD6FAB6FAD6FAB682
:10086000FAD6FAB6FAD6FAB6FAD6FAB6FAD6FAB688
:10087000FAD6FAB6FAD6FAB6FAD6FAB6FAD6FAB678
:10088000FAD6FAB6FAD6FAB6FAD6FAB6FAD6FAB668
:10089000FAD6FAB6FAD6FAB6FAD6FAB6FAD6FAB658
:1008A000FAD6FAB6FAD6FAB6FAD6FAB6FAD6FAB648
:1008B000FAD6FAB6FAD6FAB6FAD6FAB6FAD6FAB638
:1008C000FAD6FAB6FAD6FAB6FAD6FAB6FAD6FAB628
:1008D000FAD6FAB6FAD6FAB6FAD6FAB6FAD6FAB618
:1008E000FAD6FAB6FFFFFFFFFFFFFFFFFFFFFFFF94
:1008F000FFFFFFFFFFFFFFFFFFFFFFFFFFFFFFFF08
:10090000FFFFFFFFFFFFFFFFFFFFFFFFFFFFFFFFF7
:10091000FFFFFFFFFFFFFFFFFFFFFFFFFFFFFFFFE7
:10092000FFFFFFFFFFFFFFFFFFFFFFFFFFFFFFFFD7
:10093000FFFFFFFFFFFFFFFFFFFFFFFFFFFFFFFFC7
:10094000FFFFFFFFFFFFFFFFFFFFFFFFFFFFFFFFB7
:10095000FFFFFFFFFFFFFFFFFFFFFFFFFFFFFFFFA7
:10096000FFFFFFFFFFFFFFFFFFFFFFFFFFFFFFFF97
:10097000FFFFFFFF01FCEAFCFAFCEAFC01FCEAFCD9
:10098000FAFCEAFC01FCEAFCFAFCEAFC01FCEAFCE9
:10099000FAFCEAFC01FCEAFCFAFCEAFC01FCEAFCD9
:1009A000FAFCEAFC01FCEAFCFAFCEAFC01FCEAFCC9
:1009B000FAFCEAFC01FCEAFCFAFCEAFC01FCEAFCB9
:1009C000FAFCEAFC01FCEAFCFAFCEAFC01FCEAFCA9
:1009D000FAFCEAFC01FCEAFCFAFCEAFC01FCEAFC99
:1009E000FAFCEAFC01FCEAFCFAFCEAFC01FCEAFC89
:1009F000FAFCEAFC01FCEAFCFAFCEAFC01FCEAFC79
:100A0000FAFCEAFC00FFFFFFFFFFFFFF00FFFFFF14
:100A1000FFFFFFFF00FFFFFFFFFFFFFF00FFFFFFE4
:100A2000FFFFFFFF00FFFFFFFFFFFFFF00FFFFFFD4
:100A3000FFFFFFFF00FFFFFFFFFFFFFF00FFFFFFC4
:100A4000FFFFFFFF00FFFFFFFFFFFFFF00FFFFFFB4
:100A5000FFFFFFFF00FFFFFFFFFFFFFF00FFFFFFA4
:100A6000FFFFFFFF00FFFFFFFFFFFFFF00FFFFFF94
:100A7000FFFFFFFF00FFFFFFFFFFFFFF00FFFFFF84
:100A8000FFFFFFFF00FFFFFFFFFFFFFF00FFFFFF74
:100A9000FFFFFFFFAA55AA55AA55AA55AA55AA5560
:100AA000AA55AA55AA55AA55AA55AA55AA55AA554E
:100AB000AA55AA55AA55AA55AA55AA55AA55AA553E
:100AC000AA55AA55AA55AA55AA55AA55AA55AA552E
:100AD000AA55AA55AA55AA55AA55AA55AA55AA551E
:100AE000AA55AA55AA55AA55AA55AA55AA55AA550E
:100AF000AA55AA55AA55AA55AA55AA55AA55AA55FE
:100B0000AA55AA55AA55AA55AA55AA55AA55AA55ED
:100B1000AA55AA55AA55AA55AA55AA55AA55AA55DD
:100B2000AA55AA55AA55AA55AA55AA55AA55AA55CD
:100B3000AA55AA55AA55AA55AA55AA55AA55AA55BD
:100B4000AA55AA55AA55AA55AA55AA55AA55AA55AD
:100B5000AA55AA55AA55AA55AA55AA55AA55AA559D
:100B6000AA55AA55AA55AA55AA55AA55AA55AA558D
:100B7000AA55AA55AA55AA55AA55AA55AA55AA557D
:100B8000AA55AA55AA55AA55AA55AA55AA55AA556D
:100B9000AA55AA55AA55AA55AA55AA55AA55AA555D
:100BA000AA55AA55AA55AA55AA55AA55AA55AA554D
:100BB000AA55AA55555555554155401555555555A4
:100BC00055555555AAAAAAAA18A29FC00AAAAAAA08
:100BD000AAAAAAAA55555550FE001FFFE55555551E
:100BE00055555555AAAAAAAFFF7F9FFFF8AAAAAAF2
:100BF000AAAAAAAA5555054FFFFFFC01FE55555557
:100C000055555555AAAA70A7CFFFFC003F2AAAAA9E
:100C1000AAAAAAAA5554FF170FF9FC003FD55555AB
:100C200055555555AAA9FFE787C1F8001FCAAAAABA
:100C300082AAAAAA5553E7FFC7C3F0001FD55540A3
:100C400079555155AAA7C07FC383F0700FAAAA9FF8
:100C5000FAAAA6AA5557C007C387E0780F95553F53
:100C6000F9551E55AAA78001E307E0781F8AAA7FDD
:100C7000FCA8FF2A554F0000E10FC0381FE554F8CB
:100C80007D47FF95AA9E07FFE10FC0001FF8AAF05D
:100C90003C1FFFAA553E0FFFF01FE0003FFE54F43B
:100CA000BCFFFFD5AA7C0FFFF01FE00000FF8A7099
:100CB0003FFFFFCA55781FFFF03FF00000FFE57BC4
:100CC0007FFFF1E5AAF03FFF980FF000007BF86C82
:100CD000DFFE01F255F07FFE1807FFC00078FE70BE
:100CE0003F8000F5ABE07FF01C01FFC000383FEF14
:100CF000DC0000FA53C0FFC01C407F80E0381FFFBB
:100D0000FC000079A781FF000C203F80F01807FC51
:100D10007C0001FA4F80F8000E300F01F01C03FC3C
:100D20003C000FF9A70060000E180701E03C00FC32
:100D30003C00FFF2538000020E1C0F00407C003C80
:100D40003C07FF85ABE0001E0F0E0F0000FC001CEF
:100D50003E0FFE2A55F001FF0F0F1F0001FC301C53
:100D60003E0FF955AAF80FFF071FBF0003FC3C1CFC
:100D70003E0FFE2A557E7FFF079FFF8006FC3E1C2C
:100D80001E0FFF95AA7FFFFE07BFFFE00CFE1E1C93
:100D90001E01FFAA543FFFF807FFFFF8FC7E1E1C50
:100DA0001E003F95A1FFFFE00FF1FF0FFC7E1E1C10
:100DB0001E003FAA57FFFF803F80F007FC7E1F1EEA
:100DC0001E003F15A7FFFC00FF8CF0E7FC7E1F0E06
:100DD0001E03FCAA4E7FF001FF1C78F7007E1F0E59
:100DE0001E0FF155AF1FC007FF3E78F6007E1F0EA5
:100DF0001E0FE2AA4F87001FFE7E3CFE1C7E1F0EC8
:100E00001F0FF855AFC0003FEE7F1C7C7E7F0E0E9B
:100E10001F07FF2A57E000FF8E7F1C7CFE7F080E15
:100E20001F01FF95ABF803FE2E070C7CFE7F000E22
:100E30000F007FAA55FC07F94F000E7CFE7F001EB5
:100E40000F001F95AAFE1FE2A7E03E3C007F003E78
:100E50000F0007AA557F7F9557FFFE3C00FF00FE5D
:100E60000FC007D5AA9FFF2AA7FFFFFFFFFF01FFC3
:100E70000FF003CA554FFC5557FFFFFFFFFF83FFDD
:100E8000CFFC03D5AAA7F2AAA00FFFFFFFFF87FBA5
:100E9000FFFF83CA5553C555554FFFFFFFFF9FE422
:100EA000FF3FE1D5AAA92AAAAA9FFFFFFFFFBFCA59
:100EB0003F0FF9CA55545555555FFFFFFFFFFF150A
:100EC0004E53FFD5AAAAAAAAAABFFFFFFFFFFEAAF8
:100ED000A2A87FCA55555555553FFFFFFFFFFE5548
:100EE00055551FE5AAAAAAAAAA7860F78307BF2AC0
:100EF000AAAAA3EA555555555577BBEBBDDF9F15FB
:100F0000555554E5AAAAAAAAAA77FBEBBDDF8F8A9A
:100F1000AAAAAA2A5555555555387BDD83DF87C5C2
:100F200055555545AAAAAAAAAABFBBC1B7DF8FCA01
:100F3000AAAAAAAA555555555537BBDDBBDF9F95C3
:100F400055555555AAAAAAAAAAB87BBEBDDFBF2A85
:100F5000AAAAAAAA55555555553FFFFFFFFFFE55B2
:100F600055555555AAAAAAAAAA9FFFFFFFFFFCAA9A
:100F7000AAAAAAAA55555555555FFFFFFFFFF95577
:100F800055555555AAAAAAAAAA800000000002AA8F
:100F9000AAAAAAAA555555555555555555555555AD
:100FA00055555555AAAAAAAAAAAAAAAAAAAAAAAAF5
:100FB000AAAAAAAA00000000000000000000000089
:100FC0000000008080808000000000000000000021
:100FD0000000000000000000000000000000C060F1
:100FE00020203F63021685E53F60C08000000000BE
:100FF000000000000000000000000038DC53503CFE
:10100000369CD050505050D0BE20244DDBB6243CEE
:1010100000000000060E0C1818185EFB5919191B69
:101020001F19181818181818191F1B59F95B1E18C2
:10103000080C0C0600000000000000000080E070BA
:10104000D090B0A0E0000000000000000000000010
:101050000000000000008080C0603098888F8C0005
:101060000200001C87D1715151D1919BBA2E243CB2
:10107000000000000F19171C040603010000077C84
:10108000CC868381E1380808888888F8CDC7E4B425
:101090003C1E07000000040C0C08183030303F39AB
:1010A00079380C0C0706020303010100000001005F
:1010B0000000000000000000000000000000000030
:1010C0000000F81C14B42C28F800000000000000F8
:1010D000000000000000000000000000C0780EC307
:1010E000E181010300000407E143C69C30E0C080B9
:1010F00000000000000000000000003FE764361F11
:101100000C87C464246444C48F183021C78D080F31
:1011100000000000060E0C1818185EFB5919191B68
:101120001F19181818181818191F1B59F95B1E18C1
:10113000080C0C060F8008C008400C6004303E1EEE
:101140002202386A0C4A070E018400C6004200627F
:10115000003E000001F00310021006300C20787CE5
:101160004044561C523070E021806300420046002B
:101170007C000000038002C00240025E06720C0682
:10118000399C20302C603E40024002400240024028
:10119000034001C0FFFFC3A581DBE7FFFFFF99818B
:1011A00081C3E7FF00000000003E5B4F5B3E3E6BEB
:1011B0004F6B3E1C3E7C3E1C183C7E3C181C577DF1
:1011C000571C1C5E7F5E1C00183C1800FFE7C3E73D
:1011D000FF0018241800FFE7DBE7FF30483A060E4F
:1011E0002629792926407F050507407F05253F5A96
:1011F0003CE73C5A7F3E1C1C08081C1C3E7F142206
:101200007F22145F5F005F5F06097F017F006689B0
:10121000956A606060606094A2FFA29408047E04F6
:101220000810207E201008082A1C08081C2A08081C
:101230001E101010100C1E0C1E0C30383E383006DC
:101240000E3E0E06000000000000005F00000007D8
:10125000000700147F147F14242A7F2A1223130806
:10126000646236495620500008070300001C2241E2
:10127000000041221C002A1C7F1C2A08083E080886
:101280000080703000080808080800006060002036
:10129000100804023E5149453E00427F4000724919
:1012A0004949462141494D331814127F10274545BD
:1012B00045393C4A494931412111090736494949D3
:1012C00036464949291E0000140000004034000041
:1012D00000081422411414141414004122140802AA
:1012E000015909063E415D594E7C1211127C7F491D
:1012F0004949363E414141227F4141413E7F494972
:1013000049417F090909013E414151737F0808089D
:101310007F00417F41002040413F017F081422416E
:101320007F404040407F021C027F7F0408107F3EC8
:101330004141413E7F090909063E4151215E7F0935
:10134000192946264949493203017F01033F40409C
:10135000403F1F2040201F3F4038403F6314081487
:101360006303047804036159494D43007F414141BF
:101370000204081020004141417F040201020440A0
:1013800040404040000307080020545478407F2824
:101390004444383844444428384444287F3854541A
:1013A000541800087E090218A4A49C787F0804043D
:1013B0007800447D40002040403D007F10284400DC
:1013C00000417F40007C047804787C08040478386D
:1013D00044444438FC1824241818242418FC7C089D
:1013E000040408485454542404043F44243C40401A
:1013F000207C1C2040201C3C4030403C44281028CD
:10140000444C9090907C4464544C44000836410015
:101410000000770000004136080002010204023C8F
:101420002623263C1EA1A161123A4040207A38545E
:1014300054555921555579412154547841215554D9
:10144000784020545579400C1E527212395555552A
:1014500059395454545939555454580000457C4115
:101460000002457D420001457C40F0292429F0F02E
:10147000282528F07C545545002054547C547C0A7F
:10148000097F4932494949323248484832324A484C
:1014900048303A4141217A3A42402078009DA0A04C
:1014A0007D39444444393D4040403D3C24FF2424A0
:1014B000487E4943662B2FFC2F2BFF0929F620C0BD
:1014C000887E090320545479410000447D4130480E
:1014D000484A32384040227A007A0A0A727D0D1951
:1014E000317D2629292F28262929292630484D40B3
:1014F00020380808080808080808382F10C8ACBAAF
:101500002F102834FA00007B000008142A1422222D
:10151000142A14089500220095AA005500AAAA557D
:10152000AA55AA000000FF00101010FF00141414A8
:10153000FF001010FF00FF1010F010F0141414FC46
:10154000001414F700FF0000FF00FF1414F404FC63
:10155000141417101F10101F101F1414141F001044
:101560001010F0000000001F101010101F101010BD
:1015700010F010000000FF101010101010101010CC
:10158000FF10000000FF140000FF00FF00001F100C
:10159000170000FC04F414141710171414F404F4C6
:1015A0000000FF00F714141414141414F700F714B7
:1015B0001414171410101F101F141414F414101006
:1015C000F010F000001F101F0000001F14000000AA
:1015D000FC140000F010F01010FF10FF141414FFA2
:1015E000141010101F00000000F010FFFFFFFFFF9D
:1015F000F0F0F0F0F0FFFFFF0000000000FFFF0F31
:101600000F0F0F0F38444438447C2A2A3E147E02C0
:10161000020606027E027E02635549416338444455
:101620003C04407E201E2006027E020299A5E7A50A
:10163000991C2A492A1C4C7201724C304A4D4D307B
:101640003048784830BC625A463D3E494949007EA0
:101650000101017E2A2A2A2A2A44445F4444405137
:101660004A444040444A51400000FF0103E080FFEB
:10167000000008086B6B083612362436060F090F77
:1016800006000018180000001010003040FF010193
:10169000001F01011E00191D1712003C3C3C3C00BC
:1016A000000000000000000200090F000003040118
:1016B000000C00000000000000000000000000001E
:1016C000000000080B0002020201000904000001F2
:1016D0000202000005240010010524010101042478
:1016E00002060524060001070581031000400904D5
:1016F0000100020A00000007050202400000070581
:1017000083024000000403090441726475696E6F2E
:10171000204C4C430041726475626F7900120100E5
:101720000200000040412336800001010203011243
:10173000010002EF02014041233680000101020353
:101740000100222B11241FBECFEFDAE0DEBFCDBF98
:1017500011E0A0E0B1E0E6E5FDE502C005900D92E4
:10176000A03EB107D9F726E0A0EEB1E001C01D927E
:10177000A83DB207E1F71BE0C2EADBE004C0219715
:10178000FE010E948B2BC13AD107C9F70E94652048
:101790000C94A92E0C940000209133023091340255
:1017A0002F5F3F4F30933402209333028091190210
:1017B000811109C084E090E0909318028093170291
:1017C00081E080931902C90164E670E00E94772BE2
:1017D000892B31F483E090E09093230180932201E0
:1017E000C9016CE271E00E94772B892B61F4809132
:1017F000200190912101833091052CF40196909362
:10180000210180932001089583E090E090932301CB
:1018100080932201909321018093200189E090E040
:1018200090930F0180930E0110920802109207020C
:1018300010920A021092090210921C0210923402B5
:10184000109233021092110210922E0288E190E061
:10185000909315018093140188E290E09093130116
:101860008093120188E090E0909311018093100121
:1018700064E270E080E090E00E945A18DC01CB0145
:10188000865A9F4FAF4FBF4F9093E5018093E4017D
:1018900060E870E080E090E00E945A18DC01CB0123
:1018A00080589F4FAF4FBF4F9093E7018093E60161
:1018B00064E670E080E090E00E945A18DC01CB0101
:1018C000845D9E4FAF4FBF4F9093E9018093E80135
:1018D00068EC70E080E090E00E945A18DC01CB01D7
:1018E000845D9E4FAF4FBF4F9093EB018093EA0111
:1018F0006CE271E080E090E00E945A18DC01CB01BC
:10190000885A9D4FAF4FBF4F9093EF018093EE01E8
:101910006EE370E080E090E00E945A18DC01CB0199
:101920004896A11DB11D909301028093000262E8C8
:1019300070E080E090E00E945A18DC01CB018A5BE5
:101940009F4FAF4FBF4F90930302809302026EE30D
:1019500070E080E090E00E945A18DC01CB014896CC
:10196000A11DB11D9093FD018093FC0162E870E020
:1019700080E090E00E945A18DC01CB018A5B9F4F07
:10198000AF4FBF4F9093FF018093FE016FE270E075
:1019900080E090E00E945A18DC01CB014C96A11D1A
:1019A000B11D9093F9018093F80162E870E080E046
:1019B00090E00E945A18DC01CB018A5B9F4FAF4F29
:1019C000BF4F9093FB018093FA0168EC70E080E0D8
:1019D00090E00E945A18DC01CB01885A9D4FAF4F0E
:1019E000BF4F909306028093050268EC70E080E0A0
:1019F00090E00E945A18DC01CB0180579E4FAF4FF8
:101A0000BF4F9093ED018093EC016EE370E080E0B6
:101A100090E00E945A18DC01CB014896A11DB11D2F
:101A20009093F5018093F40164EB70E080E090E026
:101A30000E945A18DC01CB018C549F4FAF4FBF4F0F
:101A40009093F7018093F6016EE370E080E090E000
:101A50000E945A18DC01CB014896A11DB11D90933C
:101A6000F1018093F00160E570E080E090E00E9479
:101A70005A18DC01CB0188589F4FAF4FBF4F90934E
:101A8000F3018093F2011092360210923502109207
:101A90001B0210921A02109222021092210210923E
:101AA0001E0210921D0208951092120280911A02D5
:101AB00090911B0281372FEF920734F00497909397
:101AC0001B0280931A02089510921C0264E270E0D7
:101AD00080E090E00E945A18DC01CB01865A9F4FAB
:101AE000AF4FBF4F9093E5018093E40160E870E051
:101AF00080E090E00E945A18DC01CB0180589F4F93
:101B0000AF4FBF4F9093E7018093E60164E670E02A
:101B100080E090E00E945A18DC01CB01845D9E4F6A
:101B2000AF4FBF4F9093E9018093E80168EC70E0FC
:101B300080E090E00E945A18DC01CB01845D9E4F4A
:101B4000AF4FBF4F9093EB018093EA016CE271E0DD
:101B500080E090E00E945A18DC01CB01885A9D4F2A
:101B6000AF4FBF4F9093EF018093EE0168EC70E0B0
:101B700080E090E00E945A18DC01CB01885A9D4F0A
:101B8000AF4FBF4F909306028093050268EC70E060
:101B900080E090E00E945A18DC01CB0180579E4FF4
:101BA000AF4FBF4F9093ED018093EC0181E08093A4
:101BB000110280EF9FEF909311018093100188E054
:101BC00090E0909315018093140183E090E090934E
:101BD0002202809321020895809122019091230195
:101BE000181619062CF40197909323018093220173
:101BF0008091220190912301892BF1F480912001A1
:101C000090912101009739F485E090E090932202B1
:101C100080932102089501979093210180932001E0
:101C200083E090E0909323018093220160EA70E0CA
:101C30008AEF90E00C94D21A0895EF920F93CF930D
:101C4000DF93D82F80911202882359F080914E069D
:101C500090914F066AE070E00E94632B892B09F493
:101C60006DC1809111026091210270912202409118
:101C7000140150911501882309F4D2C080911001FC
:101C80009091110120911201309113018217930755
:101C900044F40296909311018093100121E030E00A
:101CA00002C020E030E06230710509F081C080910F
:101CB000E4019091E501BA01605F7F4F68177907F1
:101CC00004F148175907ECF480911001909111012B
:101CD00007974097B0F487E090E0909311018093CC
:101CE000100181E090E09093180280931702809198
:101CF0001202882321F080914E0680FF22C121E04C
:101D000030E040911401509115018091E6019091CD
:101D1000E701BA01605F7F4F6817790704F1481740
:101D20005907ECF4809110019091110140970897A8
:101D3000B0F482E190E0909311018093100182E071
:101D400090E09093180280931702809112028823EA
:101D500021F080914E0680FFF9C020E030E04091F4
:101D60001401509115018091E8019091E901BA01A7
:101D7000605F7F4F68177907DCF04F9684179507EF
:101D8000BCF080911001909111014097089780F468
:101D900082E190E0909311018093100180911202F2
:101DA000882321F080914E0680FFD5C021E030E0ED
:101DB0008091210290912202039721F54091140114
:101DC0005091150180910C0190910D01BA01605F55
:101DD0007F4F68177907B4F00F968417950794F032
:101DE00080911001909111010497089758F486E0B2
:101DF00090E0909311018093100181E080932D0277
:101E000020E030E080911201909113014091100187
:101E100050911101481759070CF11092110218C086
:101E20006230710579F480911D0290911E02019734
:101E300049F44931510534F041505109509315018D
:101E40004093140188E190E0909313018093120174
:101E5000909311018093100120E030E0C0912E0298
:101E6000CC2311F022E030E080912C0240911D0241
:101E700050911E02882371F14230510549F480913E
:101E8000210290912202029719F480E290E002C0B0
:101E900082E090E060911401709115018617970718
:101EA00034F46250710970931501609314016091CC
:101EB0001401709115016817790711F410922C0222
:101EC0004230510511F421E030E080914E0680FF50
:101ED00010922C0280912B02882309F441C04230D9
:101EE000510549F48091210290912202029719F440
:101EF00060E570E002C060E670E0E0911401F091EE
:101F00001501E617F7072CF43296F0931501E093CC
:101F1000140180911401909115018617970711F40F
:101F200010922B024230510511F422E030E08091F2
:101F30004E0680FD15C010922B0212C00E946C1C30
:101F400090CE0E946C1C0E94CC0BD9CE0E946C1CBF
:101F50000E94CC0B02CF0E946C1C0E94CC0B26CF9F
:101F60008091140190911501D11116C04230510594
:101F700069F440912102509122024230510531F41E
:101F80006091120170911301E12C16C06091100153
:101F900070911101E12C2BC04230510511F5409197
:101FA00021025091220242305105D9F46091120170
:101FB00070911301EE24E39400E12115310521F421
:101FC00020E144E751E10AC02130310521F420E14C
:101FD00044E551E103C020E144E351E10E94B21520
:101FE0001AC06091100170911101EE24E39400E297
:101FF0002115310521F420E244EB50E10AC02130E3
:10200000310521F420E244E350E103C020E244EB37
:102010005FE00E944514809121029091220282305B
:10202000910509F017C180911D0290911E02813027
:10203000910531F5809114019091150180962091C0
:10204000EA013091EB018217930779F42091120194
:10205000309113012031310544F081E08093140266
:102060006CE370E080E090E051C02091EE0130918F
:10207000EF018217930709F034C1C11132C1EDCFCE
:10208000029709F02EC180910402882309F429C126
:10209000409102025091030280911201909113012C
:1020A0009C01205F3F4F24173507B4F148175907AB
:1020B0009CF16091000270910102409114015091D5
:1020C00015016417750744F1405F5F4F46175707C6
:1020D0001CF181E08093140280914E0690914F068E
:1020E0006AE070E00E94632B892B61F480912201E9
:1020F00090912301181619062CF40197909323014F
:10210000809322016AE070E080E090E0DF91CF915F
:102110000F91EF900C9442194091FE015091FF01F4
:10212000241735079CF04817590784F06091FC018B
:102130007091FD01409114015091150164177507CC
:102140002CF0405F5F4F461757071CF64091FA018D
:102150005091FB0124173507CCF048175907B4F00C
:102160006091F8017091F9014091140150911501AD
:10217000641775075CF0405F5F4F4617570734F0F0
:1021800081E0809314028093130285C04091F20194
:102190005091F3012417350794F1481759077CF142
:1021A0006091F0017091F10140911401509115017D
:1021B0006417750724F1405F5F4F46175707FCF01F
:1021C00088E691E09093F3018093F20180911602EA
:1021D00081110FC081E0809316020E94721C64E09E
:1021E00070E080E090E00E945A18709318026093AB
:1021F0001702DF91CF910F91EF900C94CC0B40918F
:10220000F6015091F701241735070CF46AC04817FE
:1022100059070CF466C02091F4013091F5018091CA
:10222000140190911501281739070CF45AC04096F3
:10223000821793070CF455C084EF91E09093F70157
:102240008093F601809115028111D3CF81E08093B4
:102250001502C3CF039709F044C0809114019091F7
:1022600015014C96209108013091090182179307BE
:10227000B9F42091100130911101245E3F4F40913B
:102280000601509107012417350754F081E080932F
:1022900014020E94EC0D62E370E080E090E036CF23
:1022A000209104013091050182179307D1F48091A8
:1022B0001001909111014C9620910A0130910B016F
:1022C0008217930764F081E090E090930802809376
:1022D0000702DF91CF910F91EF900C94721C0E9436
:1022E000EC0D80911D0290911E02019709F05FC0D4
:1022F00080914E0680FD5BC0209114013091150144
:10230000A9014C5D5F4F809105029091060248172C
:1023100059070CF1089682179307ECF060911001B1
:10232000709111018091000190910101861797072A
:1023300094F080E490E090930101809300018091FB
:102340001502811156CF81E0809315020E94721C04
:1023500086E090E027C08091EC019091ED01481754
:1023600059072CF10896821793070CF12091100160
:10237000309111018091020190910301821793071E
:10238000B4F080E490E09093030180930201809187
:10239000160281112ECF81E0809316020E94721CDA
:1023A00085E090E0909318028093170222CFDF918E
:1023B000CF910F91EF900895809121029091220288
:1023C000892B09F04FC062E370E080E090E00E944A
:1023D00042190E94EE1A83FF1CC0809120028823BC
:1023E00069F0109220021092BF0660E085E00E9422
:1023F000E11860E08DE00E94E11805C081E0809363
:1024000020020E940B1B62E370E080E090E00E94DB
:1024100042190E94EE1A82FF25C010921F0283E02B
:1024200090E0909321018093200190932301809369
:10243000220110923402109233021092360210924E
:10244000350282E090E0909322028093210281E0A5
:1024500090E090931E0280931D0262E370E080E0A2
:1024600090E0BDC0809121029091220282309105BE
:1024700009F06AC080911D0290911E02019709F037
:1024800053C00E94EE1A82FF1EC0809112019091EB
:10249000130101974F97B8F480911102811113C075
:1024A00081E08093110280912E028111B0C080EFF3
:1024B0009FEF90931101809310018AE290E0909336
:1024C0001501809314010E94EE1A86FF20C08091AE
:1024D0001A0290911B020297813F2FEF92072CF076
:1024E00090931B0280931A0204C010921B02109258
:1024F0001A0280911A0290911B02419724F01092C7
:102500001B0210921A0281E08093120202C0109204
:1025100012020E94EE1A84FD04C00E94EE1A83FF8C
:102520007BC081E080932E0280911D0290911E025B
:10253000029709F0FCC00E94EE1A82FD70C00E9452
:10254000EE1A86FD6CC079C08330910599F50E9422
:10255000EE1A82FF14C0809112019091130101972D
:102560004F9768F481E08093110280912E028111CF
:102570009EC080EF9FEF90931101809310010E9405
:10258000EE1A86FF05C081E080932B0210922C0288
:102590000E94EE1A85FF05C081E080932C02109204
:1025A0002B020E94EE1A84FD87C00E94EE1A83FD62
:1025B00083C086C00497A9F40E94EE1A83FD83C0ED
:1025C0000E94EE1A82FD7FC00CC02230310509F056
:1025D000AEC00E94040C64EF71E080E090E00C94C7
:1025E00042198091210290912202059709F09FC023
:1025F00062E370E080E090E00E9442190E94EE1ACF
:1026000083FDE7CF0E94EE1A82FDE3CF089510927A
:1026100011011092100151CF10922E0285CF81E04E
:102620008093120280932B020E94EE1A83FD0AC04F
:102630000E94EE1A85FD06C035C010922B02109242
:102640001202F2CF81E08093120280932C020E944A
:10265000EE1A84FF22C080911A0290911B02029709
:10266000813F2FEF92072CF090931B0280931A0268
:1026700004C010921B0210921A0280911A029091CB
:102680001B02419724F010921B0210921A0281E063
:102690008093120280930402089510920402109213
:1026A0001202089510922C0210921202D0CF1092B2
:1026B00011011092100163CF81E080932E020895E2
:1026C00010922E02089583E090E090932101809370
:1026D0002001909323018093220110921102109205
:1026E000120281E08093040262E370E080E090E0F7
:1026F0000E94421982E090E090932202809321028E
:10270000109236021092350220911D0230911E0265
:102710002130310509F059CF26E030E030930F0128
:1027200020930E0190931E0280931D020895089538
:10273000CF93DF931F92CDB7DEB76983DC01ED91B4
:10274000FC910280F381E02D41E050E0BE016F5F1B
:102750007F4F09950F90DF91CF91089583E080938B
:10276000E9008091F200882319F08AE38093E80061
:1027700008958F929F92AF92BF92CF92DF92EF9285
:10278000FF920F931F93CF93DF935C016B018A013C
:1027900080911D01882309F45EC080913202882354
:1027A00009F459C08091300280FF05C08091E0009B
:1027B00082608093E000E8018AEFF82E93E0E92E32
:1027C0002FE3822E3AE3932E209709F43DC08FB772
:1027D000F894E092E9009091E80095FF06C090918E
:1027E000F200282D291B922F01C090E08FBF91117C
:1027F0000AC0FA94FF2079F161E070E080E090E097
:102800000E944219E1CF292F30E0C217D3070CF400
:102810009C2F8FB7F894E092E9002091E80025FF03
:1028200011C0292F30E0C21BD30BF601915020F0CC
:1028300041914093F100FACFC20ED31E9091E8006F
:1028400095FF13C08FBFC0CF5D9884E680932F02A1
:102850001016110644F081E090E0F5019383828325
:1028600080E090E005C0C80103C09092E800EACF84
:10287000DF91CF911F910F91FF90EF90DF90CF905C
:10288000BF90AF909F908F9008952F923F924F925C
:102890005F926F927F928F929F92AF92BF92CF92F0
:1028A000DF92EF92FF920F931F93CF93DF93CDB7F9
:1028B000DEB72D970FB6F894DEBF0FBECDBFED8209
:1028C000E22EF12C9C012E0D3F1D37FD32C18038C8
:1028D00091050CF02EC19B01200F311D37FD29C140
:1028E000603471050CF025C1DB0177FF04C0AA2715
:1028F000BB27A61BB70BA770BB279B0177FF02C0A6
:10290000295F3F4F13E0359527951A95E1F777FF3B
:1029100008C02150310968E070E0FB01EA1BFB0BA5
:10292000DF01E02FE695E695E695CE2ED12C0770D7
:1029300019F0FFEFCF1ADF0AB9017695762F6627D7
:1029400077956795680F791F695C7D4F8601020F47
:10295000131F19870887C12CD12CF8E0AF2EB12C9A
:1029600085010A1B1B0B1F830E8308851985201701
:10297000310709F4DEC02830310509F4DAC02F3FF1
:102980001FEF31070CF4CAC08B0100581F4F1D8781
:102990000C874B013B012B011C011C830B831A8309
:1029A00009831B861A860A851B850E151F050CF0E8
:1029B000B5C010E82116310409F4B0C037FC89C055
:1029C0002F3FEFEF3E0709F4B0C00A851B850C0DC1
:1029D0001D1DFD81F13079F4F801E40FF51FE4913C
:1029E000F0E08F010A2E01C0000F0A94EAF7F3010C
:1029F000B0800B2925C0FD81F11114C0F801E40F4E
:102A0000F51FE491F0E00A2E02C0EE0FFF1F0A94BA
:102A1000E2F78F0100951095F401A080B12C0A21F6
:102A20001B210EC0F801E40FF51FE491F0E08F01C7
:102A30000A2E01C0000F0A94EAF7F201B0800B25BC
:102A40000083109709F445C02730310509F441C0CF
:102A50000A851B850C0D1D1DFD81F13089F4F801DF
:102A6000E40FF51FE4910E2F10E00E8002C01595C3
:102A700007950A94E2F7EC85FD85B0800B2928C004
:102A8000FD81F11115C0F801E40FF51FE4910E2F3F
:102A900010E00E8002C0159507950A94E2F70095A4
:102AA0001095E981FA81A080B12C0A211B2110C068
:102AB000F801E40FF51FE4910E2F10E00E8002C024
:102AC000159507950A94E2F7EB81FC81B0800B2500
:102AD00000830A851B850F5F1F4F1B870A870C85A4
:102AE0001D850F5F1F4F1D870C8709811A810F5F9E
:102AF0001F4F1A8309830B811C810F5F1F4F1C839B
:102B00000B831FEF211A310AEFEF4E1A5E0AFFEF17
:102B10006F1A7F0A0FEF801A900A45CF2F5F3F4F41
:102B200060587F4FCE0CDF1C20CF109709F090CF5C
:102B3000D0CF2D960FB6F894DEBF0FBECDBFDF917C
:102B4000CF911F910F91FF90EF90DF90CF90BF90AA
:102B5000AF909F908F907F906F905F904F903F903D
:102B60002F9008952F923F924F925F926F927F9293
:102B70008F929F92AF92BF92CF92DF92EF92FF928D
:102B80000F931F93CF93DF9300D000D01F92CDB748
:102B9000DEB7C22ED12C9C012C0D3D1D37FD64C02B
:102BA000803891050CF060C010E09B01200F311FB0
:102BB00037FD5AC0603471050CF056C03E2D3A0105
:102BC0002B011C01C6010796AC0193E05595479572
:102BD0009A95E1F75A834983A12CB12CE12CF12C71
:102BE000E016F1060CF040C01D821C824701840CE7
:102BF000951C4C815D814C155D0574F5EC81FD8162
:102C000083E0F595E7958A95E1F7EA0DFB1DE60D62
:102C1000F71DE491F0E08C819D818770992740E851
:102C200050E002C0559547958A95E2F7E423F523D5
:102C3000EF2B61F0232FA4016C817D81620D731D48
:102C40008BE496E03B830E94501B3B818C819D81ED
:102C500001969D838C83CDCF5FEFE51AF50A8981BC
:102C60009A81A80EB91EBCCF0F900F900F900F90B5
:102C70000F90DF91CF911F910F91FF90EF90DF9018
:102C8000CF90BF90AF909F908F907F906F905F900C
:102C90004F903F902F900895009769F0FC010190AC
:102CA0000020E9F73197AF01481B590BBC0187E4BD
:102CB00096E00C94BF1780E090E008958F929F9269
:102CC000AF92BF92CF92DF92EF92FF920F931F933A
:102CD000CF93DF93CDB7DEB7A1970FB6F894DEBFE1
:102CE0000FBECDBF6C01990FEE08FF08F7FE31C093
:102CF000E0914706F09148060190F081E02D6DE2E9
:102D000087E496E009958C0122273327A9012C1925
:102D10003D094E095F0919A2CE0181967C019AE016
:102D2000892E912CA12CB12CCA01B901A5019401C5
:102D30000E94782E605DF70162937F0121153105B5
:102D40004105510589F7CF010E944C16800F911F54
:102D50001DC0A701960119A28E010F5D1F4F8AE0C9
:102D6000C82ED12CE12CF12CCA01B901A701960182
:102D70000E94782E605DF80162938F012115310564
:102D80004105510589F7CF010E944C16A1960FB657
:102D9000F894DEBF0FBECDBFDF91CF911F910F9191
:102DA000FF90EF90DF90CF90BF90AF909F908F906B
:102DB0000895CF92DF92EF92FF920F931F93CF93DC
:102DC000DF93F82E00E010E0C0E0D0E021E0AE019B
:102DD000B8018BE496E00E94501B2196CB30D105C0
:102DE000A9F70F5F1F4F0038110571F797E7C92E3C
:102DF000D12CC0E0D0E08091220190912301C8172E
:102E0000D9077CF4E12C08E028E04CE951E161E0CD
:102E100070E0C6010E94B21521968AE0C81AD10856
:102E2000EACFCC24C394D12CC0E0D0E08091200123
:102E300090912101C817D9077CF4E12C08E028E023
:102E400044E951E161E070E0C6010E94B2152196AB
:102E50008AE0C80ED11CEACFFF20C1F082E290E0E8
:102E600090935C0680935B0681E090E090935E0611
:102E700080935D0680911E0190911F012091350283
:102E800030913602821B930B0E945E1680E490E024
:102E900090935C0680935B0681E090E090935E06E1
:102EA00080935D068091330290913402DF91CF913F
:102EB0001F910F91FF90EF90DF90CF900C945E16D2
:102EC000809137028EBDE8E3F2E081910DB407FEF8
:102ED000FDCF8EBD86E0E733F807B9F70DB407FEE6
:102EE000FDCF089520E087E392E0B22FB111BFEF4C
:102EF000FC010024B193B193B193B1930394D1F742
:102F00000895FC0180913202811103C08FEF9FEF81
:102F100008959FB7F89482E08093E9002091F20031
:102F200030E01216130614F421E030E021153105CB
:102F300059F0289884E6809331028091F1008083D3
:102F40008091F200882319F09FBFC90108958BE694
:102F50008093E800F9CF8091670681110DC082E06F
:102F60008093630684E08093640610926606109254
:102F7000650681E08093670683E696E00895CF9228
:102F8000DF92EF92FF920F931F93CF93DF936C0129
:102F90007A018B01C0E0D0E0CE15DF0589F0D801C1
:102FA0006D918D01D601ED91FC910190F081E02DA4
:102FB000C6010995892B11F47E0102C02196ECCF40
:102FC000C701DF91CF911F910F91FF90EF90DF909C
:102FD000CF90089580910F02E0910D02F0910E02C2
:102FE000882349F0CF01029690930E0280930D0240
:102FF000859194910895CF01029690930E0280934B
:103000000D028081918108958091BF0608950E94EC
:10301000882DFC01808191810C94262CEF92FF92E7
:103020000F931F93CF93DF93EC01198218821B82B9
:103030001A821D821C8261157105A9F17B01FB01B9
:1030400001900020E9F731978F01061B170BB8019B
:103050006F5F7F4F80E090E00E94BE2C009759F098
:10306000998388831B830A832C813D81232B81F4E0
:10307000FC0110820DC088819981009711F00E9497
:10308000262C198218821D821C821B821A820BC078
:103090001D830C83B701DF91CF911F910F91FF909A
:1030A000EF900C94962DDF91CF911F910F91FF908F
:1030B000EF900895CF93DF9300D000D0CDB7DEB767
:1030C000611571058105910579F09B01AC0169835A
:1030D0003A834B835C830E94EB2D29813A814B819B
:1030E0005C810E940F2E03C060E070E0CB010F9066
:1030F0000F900F900F90DF91CF910895362F90E0B1
:10310000FC01EC55F94E4491FC01ED50FF4F249128
:10311000FC01E05EFE4F8491882309F451C04423F2
:10312000E1F150E0FA013197EF30F105B0F5E35AE3
:10313000FF4F0C948B2B909180009F7707C090914C
:1031400080009F7D03C090918000977F90938000C6
:1031500024C094B59F7702C094B59F7D94BD1DC0D7
:10316000909190009F7707C0909190009F7D03C041
:1031700090919000977F909390000FC09091C00025
:103180009F7703C09091C0009F7D9093C00005C0C1
:103190009091C200977F9093C200E82FF0E0EE0F6D
:1031A000FF1FEE5EFE4FA591B4918FB7F894EC919E
:1031B000311103C020952E2301C02E2B2C938FBFDD
:1031C0000895CF93DF9390E0FC01ED50FF4F2491E1
:1031D000FC01E05EFE4F8491882361F190E0880F4E
:1031E000991FFC01E852FF4FC591D491FC01EE5E9E
:1031F000FE4FA591B491611109C09FB7F8948881E1
:10320000209582238883EC912E230BC0623061F4D9
:103210009FB7F8943881822F809583238883EC911F
:103220002E2B2C939FBF06C08FB7F894E8812E2BCE
:1032300028838FBFDF91CF9108953FB7F894809195
:10324000C9069091CA06A091CB06B091CC0626B5CE
:10325000A89B05C02F3F19F00196A11DB11D3FBFCE
:10326000BA2FA92F982F8827820F911DA11DB11D5C
:10327000BC01CD0142E0660F771F881F991F4A9558
:10328000D1F708958F929F92AF92BF92CF92DF9223
:10329000EF92FF926B017C010E941D194B015C01B2
:1032A000C114D104E104F104F1F00E941D19DC0104
:1032B000CB0188199909AA09BB09883E9340A10549
:1032C000B10570F321E0C21AD108E108F10888EED7
:1032D000880E83E0981EA11CB11CC114D104E10426
:1032E000F10419F7DDCFFF90EF90DF90CF90BF9002
:1032F000AF909F908F9008951F920F920FB60F92EC
:1033000011242F933F938F939F93AF93BF938091FB
:10331000E0019091E101A091E201B091E3013091CF
:10332000C80623E0230F2D3720F40196A11DB11DFF
:1033300005C026E8230F0296A11DB11D2093C806E3
:103340008093E0019093E101A093E201B093E30147
:103350008091C9069091CA06A091CB06B091CC0687
:103360000196A11DB11D8093C9069093CA06A09332
:10337000CB06B093CC06BF91AF919F918F913F91B7
:103380002F910F900FBE0F901F901895CF92DF9244
:10339000EF92FF920F931F93CF93DF930E94EA1750
:1033A000811520E8920761F4809171008D7F8093F0
:1033B000710010929100469847981092100289C0AF
:1033C00021E020931002813020E8920751F480918F
:1033D0000B0290910C0290930E0280930D020E94BA
:1033E000EA17469897FD05C02091C106222309F4EB
:1033F0006BC02091C006211167C021E02093C20656
:10340000EC01DF77209769F481E08093C30646984A
:103410003FE9C32E3FE0D32EE12CF12CCAEFD0E0E0
:1034200014C08E0120E030E060E472E48FE090E0B0
:10343000A90198010E940F2E69017A0181E0C81A42
:10344000D108E108F1081092C306E0914506F09119
:1034500046060995811103C081E08093C3068091DF
:10346000C2068823A1F18091C306811130C0479A1A
:103470000E94EA17009771F09C01DE010E949A2ECB
:10348000DC01CB0129E0B595A795979587952A95FD
:10349000D1F703C08FEF9FEFDC01109290002AE07C
:1034A00020939100D0929900C09298008093C40616
:1034B0009093C506A093C606B093C706809171008D
:1034C00082608093710005C01092C20699CF479820
:1034D000CFCFDF91CF911F910F91FF90EF90DF90B1
:1034E000CF9008951F920F920FB60F9211242F9331
:1034F0003F934F935F936F937F938F939F93AF937C
:10350000BF93EF93FF938091C4069091C506A0915D
:10351000C606B091C706892B8A2B8B2B81F180912F
:10352000C30681110BC098B180E4892788B98091C6
:10353000C206882319F088B1805888B98091C406E2
:103540009091C506A091C606B091C7061816190637
:103550001A061B06B4F48091C4069091C506A0918A
:10356000C606B091C7060197A109B1098093C406A8
:103570009093C506A093C606B093C70602C00E94EA
:10358000C619FF91EF91BF91AF919F918F917F915C
:103590006F915F914F913F912F910F900FBE0F90C0
:1035A0001F9018959C01E1E7F0E090819D7F90834A
:1035B00010920F02E7E3F6E0F0930E02E0930D02A3
:1035C000F0930C02E0930B023183208373836283B8
:1035D00080E090E8958384830C94C6198FB12CB158
:1035E00093B130E02095309520743327A90123E072
:1035F000559547952A95E1F7292F30E0209530958C
:10360000207133273595279535952795242B80955F
:10361000807F822B089561E085E00E94E11861E0DF
:103620008DE00E94E11881E08093BF0608950F931A
:103630001F93CF93DF931F92CDB7DEB7182F062FBE
:1036400061E089E049830E947E1868EC70E080E0C8
:1036500090E00E94421960E0802F0E947E1882E074
:1036600090E00E94F92D4981481729F0642F82E0EB
:1036700090E00E94012E64EF71E080E090E00E94F3
:10368000421961E0802F0E947E180E94EE1A812369
:103690008117D9F30F90DF91CF911F910F9108956A
:1036A0006038710518F54034510500F5E42FE695B2
:1036B000E695E695F0E047705527F695FE2FEE2744
:1036C000F795E7956E0F7F1FFB01E95CFD4F81E0E9
:1036D00090E001C0880F4A95EAF7222319F0908103
:1036E000892B03C0809590818923808308952F9230
:1036F0003F924F925F926F927F928F929F92AF9282
:10370000BF92CF92DF92EF92FF920F931F93CF93CE
:10371000DF93CDB7DEB72A970FB6F894DEBF0FBEA2
:10372000CDBFFC016A3069F4228D8689978938E023
:10373000239F800D911D1124978B868B158A148AE7
:10374000B0C06D3009F4ADC09A878987E28C318DA5
:10375000808D89832688378804891589003811056A
:10376000C4F0A985BA855A962C915A97422F50E0F9
:1037700054968D919C915597B6E02B9F800D911D8D
:103780001124E985FA85958B848B238D211173C0D3
:1037900088C0F0E42F16310424F7C80125E0E29E2A
:1037A000800D911D112418161906DCF68E2D90E05F
:1037B0009B838A83C101A8E0EA9E800D911D11249C
:1037C0001816190674F625E0629FF0011124FD8396
:1037D000EC83C12CD12C89859A8504969F838E8396
:1037E00095E0C916D10441F0EC81FD81EC0DFD1D81
:1037F000EC55FE4EF49001C0F12C310188E0482ECA
:10380000F0FC02C0532E01C0598051100CC0A98198
:103810003A1309C0F6944A94EA81FB816E0E7F1E2A
:103820004110EECF1BC058018A2D801B8E1590F7DA
:103830004301882D86198E1568F4252DA401B50144
:103840008E819F8138870E94501BFFEF8F1A9F0A3D
:103850003885EFCF2FEFA21AB20AE6CF8FEFC81A42
:10386000D80AAA81BB810A0F1B1FB6E0CB16D10470
:1038700009F0B6CF76CF6AEF64039001659F300DF3
:10388000112420583F4F281739075CF4A985BA85C1
:10389000ED91FC9111970190F081E02D6AE0CD014E
:1038A000099581E090E02A960FB6F894DEBF0FBE2E
:1038B000CDBFDF91CF911F910F91FF90EF90DF90DF
:1038C000CF90BF90AF909F908F907F906F905F90C0
:1038D0004F903F902F90089569E170E089E190E06A
:1038E0000C94D21A60E971E080E991E00C94D21A4C
:1038F000E7E4F6E0158A148A28E330E0378B268B5C
:10390000FC01448155816081718187E496E00C94CB
:10391000BF17FC018485958597FD0BC09FB7F89470
:1039200082E08093E9008091F2009FBF90E00196D1
:1039300008959FB7F89482E08093E9008091F200A7
:103940009FBF90E008954091D2065091D3062091F8
:10395000D0063091D10642175307B4F49091E80095
:103960009570E1F39091E80092FD19C08093F10009
:103970008091D2069091D30601968F739927892B57
:1039800019F48EEF8093E8008091D2069091D306CF
:1039900001969093D3068093D20681E0089580E04B
:1039A0000895CF92DF92EF92FF920F931F93CF93E0
:1039B000DF931F92CDB7DEB7182F062FE42E862F88
:1039C000880F8E5F99830E94A31C83E00E94A31C32
:1039D000F12EC12E9981D92E8C2D8F19801798F434
:1039E000F601E7FE02C0849101C080810E94A31C01
:1039F000182F80E00E94A31C8123FFEFCF1ADF0A5B
:103A00008111EACF01C081E00F90DF91CF911F912A
:103A10000F91FF90EF90DF90CF900895DF92EF929B
:103A2000FF920F931F93CF93DF93D82E8A017B01D0
:103A3000E40EF51EEB01CE15DF0571F0D7FE03C0D5
:103A4000FE01849101C088810E94A31C21968111EE
:103A5000F2CF8FEF9FEF01C0C801DF91CF911F918F
:103A60000F91FF90EF90DF900895615030F020911A
:103A7000F100FC0120830196F8CF289884E680931A
:103A800031020895CF93DF931F92CDB7DEB7FC01CB
:103A90008485958597FD05C02FEF3FEF35872487F7
:103AA0000BC0CE0101960E948117019719F48981FC
:103AB00090E002C08FEF9FEF0F90DF91CF910895BC
:103AC0000F931F93CF93DF931F92CDB7DEB78C0177
:103AD000FC018485958597FF0EC0CE0101960E945A
:103AE0008117019719F4298130E002C02FEF3FEFD1
:103AF000F80135872487F801848595850F90DF913B
:103B0000CF911F910F9108950F931F93CF93DF9340
:103B10001F92CDB7DEB782E0898342E450E063ECC8
:103B200076E180E80E940E1D0E94AB17DC01129620
:103B30000D911C9113970115110569F0D801ED91B4
:103B4000FC910280F381E02DBE016F5F7F4FC801C1
:103B5000099597FF07C089810F90DF91CF911F9141
:103B60000F910895F80100851185E5CF1F920F92FE
:103B70000FB60F9211248F939F938091E100909143
:103B8000E100937F9093E10083FF0FC01092E90062
:103B900091E09093EB001092EC0092E39093ED0093
:103BA0001092320298E09093F00082FF20C093E0E0
:103BB0009093E9009091F200992319F09AE3909381
:103BC000E80090912F02992339F090912F029150A3
:103BD00090932F02992389F190913102992339F022
:103BE00090913102915090933102992341F184FFD9
:103BF00010C08091E2008E7E81608093E20080910F
:103C0000E1008F7E8093E100809130028E7E8061A2
:103C100011C080FF16C08091E2008E7E806180938B
:103C2000E2008091E1008E7E8093E100809130027D
:103C30008E7E81608093300204C05D9ACDCF289A39
:103C4000D6CF9F918F910F900FBE0F901F90189518
:103C50001F920F920FB60F921124CF92DF92EF9224
:103C6000FF920F931F932F933F934F935F936F9305
:103C70007F938F939F93AF93BF93EF93FF93CF93D4
:103C8000DF93CDB7DEB76C97DEBFCDBF1092E900F2
:103C90008091E80083FFFAC168E0CE0145960E945A
:103CA000351D82EF8093E8008D8987FF05C09091D4
:103CB000E80090FFFCCF03C09EEF9093E800982FA0
:103CC000907609F0C6C09E892F89188D91110CC07D
:103CD000803829F48091CE068093F10002C01092C2
:103CE000F1001092F10047C1422F50E0512B91306A
:103CF00051F4811140C14130510509F03CC180911E
:103D0000CE068D7F0BC0933061F4811134C14130F8
:103D1000510509F030C18091CE0682608093CE06B5
:103D20002AC1953041F48091E80080FFFCCF2068E3
:103D30002093E30020C1963009F05FC0EB8CFC8C2F
:103D40001092E9001092D3061092D206123091F52B
:103D50001092D1061092D0060E94841D99E0BE01F7
:103D60006F5F7F4FDB01E92F1D92EA95E9F7998399
:103D70001A8391E09E8390EA98879AEF9987209121
:103D8000D2063091D306275F3F4F3C832B838D8330
:103D90001092E9001092D3061092D206F092D1064A
:103DA000E092D00649E050E080E00E940E1D0E94A3
:103DB000841DE1C0F092D106E092D0060E94AB17BC
:103DC000DC011296ED90FC901397E114F10409F4D4
:103DD000C0C0D701ED91FC910480F581E02DBE01BA
:103DE0006B5E7F4FC7010995009719F00CF0C3C0B7
:103DF000C6C0F701E084F184E8CF973009F4BFC072
:103E0000983021F481E08093F100B5C0993009F039
:103E1000B2C0837009F0B3C0EBE4F1E081E021E0CF
:103E200036E39081992361F08093E9002093EB00C1
:103E300091919093EC003093ED008F5F873089F77C
:103E40008EE78093EA001092EA008F898093320215
:103E500092C08B8D9C8D1092E9001092D306109227
:103E6000D2069093D1068093D006898D811156C0D9
:103E70008E899D89913A59F4813209F080C047E0DA
:103E800050E066E171E080E00E940E1D74C0913246
:103E900009F075C0833289F4888D90E0982F8827C7
:103EA0002F89822BA0E0B0E080932401909325011C
:103EB000A0932601B09327015EC0803269F48091FF
:103EC000E80082FFFCCF67E086E191E00E94351DAB
:103ED0008BEF8093E80006C0823209F04CC08F89D6
:103EE00080931D018091CD06882319F0EEEFFAE052
:103EF00002C0E0E0F8E08091160190911701A091D6
:103F00001801B0911901803B9440A105B10509F059
:103F100088C080911D0180FFA0C083C00E94AB17A4
:103F2000DC0112960D911C9113970115110539F1C1
:103F3000D801ED91FC910190F081E02DBE016B5E06
:103F40007F4FC8010995811116C0F80100851185C0
:103F5000ECCF1130C1F0133091F48F89882309F42C
:103F600055C08230E9F440E867E085E197E10E94BE
:103F7000D11C882321F08EEF8093E80087C081E276
:103F80008093EB0083C08B8D9C8D089711F4109368
:103F9000CF068091CF06811136C06DE177E138C040
:103FA000813029F440E86BE089E097E1E0CF83308D
:103FB00031F70E94AB17DC011296ED90FC9013973D
:103FC0008E010F5F1F4F6801E114F10479F0D701F2
:103FD000ED91FC910680F781E02DB801C7010995AC
:103FE000080F111DF701E084F184EECFD8011C9277
:103FF000F60101900020E9F73197BF016C197D09A6
:1040000040E0C601B4CF6FE277E102C065E077E13E
:104010006115710509F4B3CFFB01449150E080E8CC
:1040200033CF0FB6F894A895809160008861809393
:104030006000109260000FBEA895EE3F2AE0F207E4
:1040400039F08091FE0A9091FF0A9183808393CF8B
:104050001092FF0A1092FE0A8ECFEE3F8AE0F80718
:1040600031F0808191819093FF0A8093FE0A87E767
:1040700097E7918380839BE088E10FB6F894A89539
:10408000809360000FBE9093600075CF6C960FB662
:10409000F894DEBF0FBECDBFDF91CF91FF91EF91BE
:1040A000BF91AF919F918F917F916F915F914F9150
:1040B0003F912F911F910F91FF90EF90DF90CF9044
:1040C0000F900FBE0F901F901895CF93DF93CDB731
:1040D000DEB729970FB6F894DEBF0FBECDBF789438
:1040E00084B5826084BD84B5816084BD85B58260FD
:1040F00085BD85B5816085BD80916E0081608093AE
:104100006E00109281008091810082608093810016
:104110008091810081608093810080918000816026
:1041200080938000809191008260809391008091C3
:1041300091008160809391008091900081608093D4
:1041400090008091C10084608093C1008091C10083
:1041500082608093C1008091C10081608093C10022
:104160008091C30081608093C3008091C000826011
:104170008093C0008091C20081608093C2008091D2
:104180007A00846080937A0080917A0082608093C4
:104190007A0080917A00816080937A0080917A0021
:1041A000806880937A00109232021092CE061092AC
:1041B00030028091D70081608093D70080EA80939D
:1041C000D80089B5806189BD89B5826089BD09B48F
:1041D00000FEFDCF61E070E080E090E00E944219B7
:1041E0008091D8008F7C80618093D8008091E0001E
:1041F000807F8093E0008091E1008E7E8093E100DB
:104200008DE08093E200559A209AEEEFFFE78591CA
:1042100094918B3F9C4D19F481E08093CD061FB79C
:10422000F89480912302811127C0E1E3F1E08491A9
:10423000E4E0F1E09491E82FF0E0EE0FFF1FE85288
:10424000FF4FA591B491EC91E92321F461E081E164
:104250000E947E1861E081E10E94E1188CB58061C6
:104260008CBD8CB580648CBD61E08FE00E94E1184C
:1042700061E080E10E94E118809123028F5F8093CA
:1042800023021FBF0FE311E0F80184910E5F1F4F5F
:1042900031966491882319F00E94E118F5CF61E00E
:1042A00086E00E947E1861E070E080E090E00E946D
:1042B000421960E086E00E947E186AE070E080E0CB
:1042C00090E00E94421961E086E00E947E18ECE2D4
:1042D000F1E0E491F0E0EE0FFF1FEE5EFE4F8591FE
:1042E00094919093290280932802EFEFF0E0E491FB
:1042F000E0932702E4E2F1E0E491F0E0EE0FFF1F2B
:10430000EE5EFE4F85919491909326028093250254
:10431000E7EFF0E0E491E09324028CB58C7F8CBD54
:104320008DB581608DBDE0912802F09129029081C8
:1043300080912702982B9083A0912502B0912602AC
:104340002C9190912402909592239C93908180953A
:1043500089238083E6EEF0E08DE08E0F94919EBD80
:1043600000000DB407FEFDCF9EB531968E13F6CF3B
:10437000E0912502F0912602908180912402892B00
:104380008083E0912802F091290290818091270298
:10439000809589238083809164008160809364008C
:1043A00080916400826080936400809164008068E2
:1043B00080936400809164008064809364008091A5
:1043C00065008160809365000E94EE1A82FF1DC027
:1043D00060E089E00E947E180E94EE1A847884389A
:1043E00021F44FEF6BE00E94171B0E94EE1A8471BC
:1043F000843121F440E06AE00E94171B68EC70E011
:1044000080E090E00E944219DFCF61E089E00E94E5
:104410007E1882E090E00E94F92D81110E940B1B12
:1044200080E180935006809164008E7F80936400C9
:1044300087EC80937C0080E280937B0062E070E0F8
:1044400080E090E00E94421980917A00806480931D
:104450007A0080917A0086FDFCCF0091780010915F
:104460007900009510958EE580937C0062E070E005
:1044700080E090E00E94421980917A0080648093ED
:104480007A0080917A0086FDFCCFE0907800F09071
:1044900079000E941D199B01AC0120953095409533
:1044A0005095E094F094E09ED001E19EB00DF09E16
:1044B000B00D11240E942E2E6B017C010E941D194B
:1044C0006C0D7D1D8E1D9F1D61157105810591056A
:1044D00011F00E94F02D809164008160809364004F
:1044E0000E94040C4EE3442E512C52E8652E53E0FA
:1044F000752E2FB7F8948091E0019091E101A09181
:10450000E201B091E3012FBF20915906222391F0DF
:1045100020915106F82FF21BF0935A0620914E0677
:1045200030914F062F5F3F4F30934F0620934E063A
:1045300010925906409155065091560660915706C3
:104540007091580684179507A607B70788F4481B8B
:10455000423010F40C94E72A83B7817F83BF83B77E
:10456000816083BF889583B78E7F83BF0C94E72AD1
:1045700020915006AC01BD01420F511D611D711DFE
:10458000409355065093560660935706709358060D
:104590008093510690935206A0935306B09354060D
:1045A00011E0109359060E94721710925E06109245
:1045B0005D0610925C0610925B068091210290913C
:1045C0002202009709F046C00E94721710925E0600
:1045D00010925D0610925C0610925B06EE24E39446
:1045E00000E420E844EB5BE060E070E080E090E015
:1045F0000E94B215809120028823B9F061E571E034
:10460000CE0101960E940E18CE0101960E94781CE0
:10461000CE0101960E94091880911F02811115C0D8
:104620000E94721C10931F0210C06AE571E0CE0157
:1046300001960E940E18CE0101960E94781CCE01B0
:1046400001960E94091810921F020E9460170E9492
:10465000DC11BDC78230910509F094C40E94721725
:1046600010925E0610925D0610925C0610925B0638
:1046700080911D0290911E020197D9F588E290E089
:1046800090931F0180931E0180911C0281110E9452
:10469000540DC0901A02D0901B02EE24E39400E166
:1046A00020E944E95AE060E070E0C6010E94451448
:1046B00020E944E759E068E070E0C6010E94451433
:1046C00020E944E558E068E170E0C6010E94451425
:1046D00020E944E357E068E270E0C6010E94451417
:1046E00008E020E944EA56E068E370E0C6010E9471
:1046F000451480911D0290911E02029709F03FC05F
:104700008AE190E090931F0180931E01C0901A02ED
:10471000D0901B02EE24E39400E520E244E655E04D
:10472000B60180E090E00E94451420E244E254E0AB
:10473000B60180E690E00E94451430E2A32EB12C31
:10474000C12CD12CEE24E39408E028E04CE154E0A5
:10475000B601C5010E94451428E0C20ED11C30E408
:10476000C316D10479F768E0A60EB11C80E6A8163E
:10477000B10431F780911C0281110E94540D809187
:104780001902882309F465C0E0911702F09118021C
:10479000E730F10520F5EA5AFF4F0C948B2B64E6C5
:1047A00071E011C06CE671E00EC062E771E00BC011
:1047B0006EE771E008C068E871E005C06EE871E07E
:1047C00002C065E971E0CE0101960E940E18CE018B
:1047D00001960E94781CCE0101960E9409188091D2
:1047E0004E0690914F066CE370E00E94632B892B7C
:1047F00081F580911602882361F0809122019091C9
:104800002301833091052CF401969093230180932A
:10481000220180911502882391F0809120019091CE
:104820002101833091055CF40196909321018093DE
:10483000200183E090E09093230180932201109265
:10484000150210921602109219021092180210927C
:10485000170280911402882309F43FC0809113024B
:10486000882319F06CE971E002C067EA71E0CE01BB
:1048700001960E940E18CE0101960E94781CCE016E
:1048800001960E94091880914E0690914F066CE3A4
:1048900070E00E94632B892B01F580912201909199
:1048A0002301892BC1F4809120019091210100976F
:1048B00039F485E090E090932202809321020BC0AE
:1048C0000197909321018093200183E090E09093E1
:1048D0002301809322011092140280E00E941D0E99
:1048E0008091210290912202029709F0C6C2809124
:1048F0001D0290911E02019709F06AC18091120277
:10490000882349F180914E0690914F0663E070E054
:104910000E94632B892BF9F48091E4019091E501C9
:10492000409681F46CE271E080E090E00E945A18B9
:10493000DC01CB018C509E4FAF4FBF4F9093E501F0
:104940008093E4018091E4019091E50101979093B7
:10495000E5018093E401E12C00E120E14EE551E026
:1049600067E270E08091E4019091E5010E944514B6
:10497000809112028823F9F08091E6019091E7017D
:10498000409681F460E971E080E090E00E945A185E
:10499000DC01CB0188539F4FAF4FBF4F9093E7018E
:1049A0008093E6018091E6019091E7010197909351
:1049B000E7018093E601E12C08E020E14EE751E0B9
:1049C00060E370E08091E6019091E7010E94451458
:1049D000809112028823F9F08091E8019091E90119
:1049E000C09681F464EF71E080E090E00E945A1874
:1049F000DC01CB0180579E4FAF4FBF4F9093E90131
:104A00008093E8018091E8019091E90101979093EA
:104A1000E9018093E801E12C08E020E34EE851E051
:104A200060E370E08091E8019091E9010E944514F3
:104A3000809112028823F9F08091EA019091EB01B4
:104A4000089681F468EE70E080E090E00E945A18C9
:104A5000DC01CB0180589F4FAF4FBF4F9093EB01CC
:104A60008093EA018091EA019091EB010197909384
:104A7000EB018093EA01E12C08E028E04EE052E0EF
:104A800060E370E08091EA019091EB010E94B21521
:104A900080914E0680FD2EC0809105029091060205
:104AA0004096F9F460E971E080E090E00E945A18C5
:104AB000DC01CB01885A9D4FAF4FBF4F9093060248
:104AC000809305026CE070E080E090E00E945A184C
:104AD000DC01CB010C96A11DB11D909301018093C7
:104AE00000018091050290910602019790930602C1
:104AF000809305026091000170910101E12C08E0B2
:104B000028E04EED51E080910502909106020E944E
:104B100045148091EC019091ED014096F9F468EC18
:104B200070E080E090E00E945A18DC01CB018853CD
:104B30009F4FAF4FBF4F9093ED018093EC0168E022
:104B400070E080E090E00E945A18DC01CB010C96E6
:104B5000A11DB11D90930301809302018091EC018E
:104B60009091ED0101979093ED018093EC0160919C
:104B7000020170910301E12C08E028E046ED51E0CC
:104B80000E94B215809112028823A9F08091EE0153
:104B90009091EF01409631F488E592E09093EF0117
:104BA0008093EE018091EE019091EF010197909337
:104BB000EF018093EE01E12C08E028E14EEB51E09B
:104BC00068E170E08091EE019091EF010E94B215D2
:104BD00080911D0290911E02029709F04EC18091B2
:104BE0000402882379F18091020290910302893FA7
:104BF0009F4FFCF460E570E080E090E00E945A185E
:104C0000DC01CB018A5B9F4FAF4FBF4F90930302F4
:104C1000809302026BE370E080E090E00E945A18FB
:104C2000DC01CB014A96A11DB11D90930102809336
:104C30000002809102029091030201979093030277
:104C4000809302026091020270910302E12C08E05D
:104C500028E04EE052E080910002909101020E9413
:104C6000B21580910402882379F18091FE01909120
:104C7000FF01893F9F4FFCF460E570E080E090E029
:104C80000E945A18DC01CB018A5B9F4FAF4FBF4F88
:104C90009093FF018093FE016BE370E080E090E071
:104CA0000E945A18DC01CB014A96A11DB11D9093B8
:104CB000FD018093FC018091FE019091FF0101971D
:104CC0009093FF018093FE016091FE017091FF01BE
:104CD000E12C08E028E046E052E08091FC01909150
:104CE000FD010E94B21580910402882379F1809120
:104CF000FA019091FB01893F9F4FFCF460E570E061
:104D000080E090E00E945A18DC01CB018A5B9F4F43
:104D1000AF4FBF4F9093FB018093FA0168E270E0C0
:104D200080E090E00E945A18DC01CB014E96A11D54
:104D3000B11D9093F9018093F8018091FA0190914F
:104D4000FB0101979093FB018093FA016091FA01B6
:104D50007091FB01E12C00E120E146EE51E08091F1
:104D6000F8019091F9010E94B21580910402882304
:104D700099F180914E0680FD2FC08091F6019091AF
:104D8000F701893F9F4FFCF464E270E080E090E01F
:104D90000E945A18DC01CB01805C9F4FAF4FBF4F80
:104DA0009093F7018093F60168E270E080E090E074
:104DB0000E945A18DC01CB014E96A11DB11D9093A3
:104DC000F5018093F4018091F6019091F70101972C
:104DD0009093F7018093F6016091F6017091F701CD
:104DE000E12C08E028E04EED51E08091F401909133
:104DF000F5010E94451480910402882379F1809185
:104E0000F2019091F301893F9F4FFCF460E570E05F
:104E100080E090E00E945A18DC01CB018A5B9F4F32
:104E2000AF4FBF4F9093F3018093F20168E270E0BF
:104E300080E090E00E945A18DC01CB014E96A11D43
:104E4000B11D9093F1018093F0018091F201909156
:104E5000F30101979093F3018093F2016091F201C5
:104E60007091F301E12C08E028E046ED51E08091DB
:104E7000F0019091F1010E94B2150E94DC1181E0D5
:104E80000E94D91680912102909122020297F9F492
:104E900080914E0690914F0668E770E00E94632B68
:104EA000892B11F40E94EC0D80914E0690914F06D3
:104EB0006CE370E00E94632B892B49F480913502EA
:104EC000909136020196909336028093350280913C
:104ED0001E0190911F012091350230913602821BF4
:104EE000930B05975CF5809105029091060281383D
:104EF000910530F08AE590E09093060280930502D8
:104F000080914E0690914F0666E070E00E94632B00
:104F1000892B31F460EA70E082E390E00E94D21ABB
:104F20006DEA71E0CE0101960E940E18CE01019645
:104F30000E94781CCE0101960E94091880911E01E2
:104F400090911F012091350230913602821B930B04
:104F5000181619060CF465C2809122019091230164
:104F6000181619060CF05DC283E090E090932301BF
:104F700080932201109236021092350281E08093D4
:104F80001C024FC28330910509F04EC20E94721775
:104F900010925E0610925D0610925C0610925B06FF
:104FA000C12CD12CEE24E39400E120E142E653E051
:104FB00065E370E0C6010E944514F0E1CF0ED11CFC
:104FC00020E8C216D10471F7C0901D02D0901E02D5
:104FD00032E0C316D104D9F480914E0690914F0669
:104FE00083709927892B99F480910C0190910D0180
:104FF0008230910509F0F5C281E080932A02809108
:105000000C0190910D01863591050CF4FEC2EE2441
:10501000E39408E020E242E453E064E270E080912F
:105020000C0190910D010E94B21580910A0190919E
:105030000B01089741F410920A0289E090E09093E6
:105040000B0180930A0180910A0190910B01843237
:10505000910549F421E020930A02309109023111AF
:1050600002C02093090220910A022111D9C201969F
:1050700090930B0180930A01809109028823A9F182
:105080008091080190910901893F6FEF960794F094
:105090000197909309018093080182E0C816D1041A
:1050A000A1F480910A0190910B01909307018093E4
:1050B00006010BC010920902809104019091050134
:1050C0000896909309018093080160910601709100
:1050D0000701EE24E39408E028E04AE353E08091DE
:1050E0000801909109010E94451411E08091070286
:1050F00090910802892B09F410E080911D02909193
:105100001E02029759F480914E0690914F0668E76F
:1051100070E00E94632B892B09F484C240910A013C
:1051200050910B012090040130900501E8EAF2E073
:10513000F491F987E9EAF2E03491112341F12985EC
:10514000E22FF0E0832F869586958695A82FB0E014
:1051500081E090E0032F077011F480E090E08A0F67
:105160009B1FE89FD001E99FB00DF89FB00D11245F
:10517000812F90E0A89F8001A99F100DB89F100D6E
:105180001124F801EA5EFD4F06551D4F04C0E6E10B
:10519000F2E00AEA12E06985A62F660FBB0B510107
:1051A000AA0EBB1E1A141B040CF0DDC080E82816E2
:1051B00031040CF0D8C0CA01830F911D37FD9A95B8
:1051C000181619060CF0CFC0403451050CF0CBC0B6
:1051D0000115110509F4C7C0CA0157FF04C088278B
:1051E0009927841B950B982F97706A0157FF03C06E
:1051F00027E0C20ED11C23E0D594C7942A95E1F78D
:10520000FC2C57FF08C0992331F0FF24FA94FC0CC2
:1052100088E0891B982F37FE05C04427552742197F
:10522000530902C040E050E060E8A616B10424F043
:1052300080E8882E821801C08984841ACF2C0F2C14
:10524000000CDD088FEFF8161CF4EC2CE09401C084
:10525000E12C232F2778B22E27FF05C0BA946B2D9F
:10526000686FB62EB39481E01B140CF080E037FD1C
:10527000395F359535953595830FC80ED11C29E0DA
:10528000C216D10414F088E08F199E2C9F0C392D82
:1052900060E83603200C311C1124B101640F751F26
:1052A0002E2D39853203600111249601240F351FFC
:1052B000A801420F531F309719F02E0F3F1F02C055
:1052C00020E030E0E1E0F0E06F01092E02C0CC0CFC
:1052D000DD1C0A94E2F78F0D981609F444C0FB0117
:1052E000E95CFD4F5F01E12CF12CE814A0F5F90118
:1052F000EE0DFF1DE491EC9D8001ED9D100D11243C
:105300000095109518870F83FA01EE0DFF1DE491AB
:10531000EC9D1001ED9D300C11243A82298297FCFE
:1053200005C0F50110810123202A2082992361F014
:10533000F6E0F9154CF0F501E058FF4F00811885B3
:1053400010230A81102B1083EFEFEE1AFE0AFFEFF5
:10535000AF1ABF0ACACF93944A0F5B1F2A0F3B1F95
:1053600060587F4FB9CF80914E0690914F066EE105
:1053700070E00E94632B892B19F5809107029091B0
:105380000802892BE9F080910E0190910F01181607
:10539000190634F4019790930F0180930E010CC00D
:1053A00084E090E0909322028093210268EE73E003
:1053B00080E090E00E9442191092080210920702C9
:1053C00080E00E94D91600910E0110910F0193E028
:1053D000000F111F9A95E1F78FE790E07C01E01A2A
:1053E000F10A11270E0D1F1DE016F106ACF48CE03A
:1053F000C82ED12C21E0A601B7018BE496E00E94D3
:10540000501BFFEFCF1ADF0A20E1C216D10491F73B
:105410003FEFE31AF30AE8CF81E00E941D0E0E94DD
:10542000DC110E946017D3C0049709F057C0109296
:105430001202109214021092110210921B0210928A
:105440001A0280E290E090935C0680935B06ECE0A9
:10545000F0E0F0935E06E0935D0688EB91E00E9439
:105460004C1628E130E030935C0620935B068CE11B
:1054700090E090935E0680935D0685EC91E00E943B
:105480004C1650925C0640925B06ECE1F0E0F09323
:105490005E06E0935D0680913302909134020E9493
:1054A0005E1624E430E030935C0620935B0687E3CD
:1054B00090E090935E0680935D0680911D0290912E
:1054C0001E02019719F48CEC91E002C087ED91E087
:1054D0000E944C160E94DC110E94601780912102EC
:1054E00090912202059709F072C010921202109258
:1054F000140210921102EE24E39400E220E24CE93F
:1055000053E068E070E080E390E00E94B215E8E1CB
:10551000F0E0F0935C06E0935B0622E330E030932A
:105520005E0620935D0685EC91E00E944C16509239
:105530005C0640925B0682E390E090935E06809367
:105540005D0680913302909134020E945E160E94A3
:10555000DC110E946017809120028823C1F18091A4
:105560001F02811134C091E090931F02809171005D
:105570008D7F8093710090930F0270920E02609263
:105580000D0270920C0260920B020E94C61980916B
:1055900010028111FCCF809171008D7F809371008A
:1055A00081E080930F0270920E0260920D02709261
:1055B0000C0260920B020E94C619809110028111A8
:1055C000FCCF68EE73E080E090E00E94421980E03A
:1055D00090E0892B11F40C9479220E9400000C9425
:1055E00079228635910519F410922A0204C083307D
:1055F00091050CF404CD20912A02211100CD0197D0
:1056000090930D0180930C01FACC20912A02222361
:1056100009F4FDCC019690930D0180930C01F7CC19
:10562000019726CD64E570E080E090E00E945A1872
:10563000DC01CB010C96A11DB11D90930501809357
:1056400004016CCDEFE6F6E01382128288EE93E05F
:10565000A0E0B0E084839583A683B78386E391E0DE
:10566000918380838FEF9FEF95878487E7E4F6E04F
:10567000138212821582168280E18187108617823A
:1056800016861786108A118A128A86E491E0918321
:105690008083158A148A178A168A81E0808F118E7A
:1056A000828F138E84E098E190934606809345069E
:1056B00080E090E8909344068093430646983E9A93
:1056C00047983F9A0895AA1BBB1B51E107C0AA1F28
:1056D000BB1FA617B70710F0A61BB70B881F991F93
:1056E0005A95A9F780959095BC01CD01089597FB37
:1056F000072E16F4009407D077FD09D00E94632B83
:1057000007FC05D03EF4909581959F4F08957095C4
:1057100061957F4F0895EE0FFF1F0590F491E02DE6
:105720000994CF93DF938230910510F482E090E0EA
:10573000E091D606F091D70620E030E0C0E0D0E05E
:10574000309711F14081518148175907C0F048172F
:10575000590761F482819381209719F09B838A8392
:105760002BC09093D7068093D60626C0211531050D
:1057700019F04217530718F49A01BE01DF01EF0137
:105780000280F381E02DDCCF2115310509F1281BC2
:10579000390B2430310590F412968D919C9113971A
:1057A0006115710521F0FB019383828304C09093FE
:1057B000D7068093D606FD01329644C0FD01E20F64
:1057C000F31F81939193225031092D933C933AC05A
:1057D0002091D4063091D506232B41F420912A0143
:1057E00030912B013093D5062093D40620912801C7
:1057F000309129012115310541F42DB73EB7409173
:105800002C0150912D01241B350BE091D406F09111
:10581000D506E217F307A0F42E1B3F0B2817390714
:1058200078F0AC014E5F5F4F2417350748F04E0FFC
:105830005F1F5093D5064093D4068193919302C085
:10584000E0E0F0E0CF01DF91CF9108950F931F9337
:10585000CF93DF93009709F48CC0FC013297138239
:1058600012820091D6061091D7060115110581F418
:1058700020813181820F931F2091D4063091D5066B
:105880002817390779F5F093D506E093D40671C04F
:10589000D80140E050E0AE17BF0750F412962D91AA
:1058A0003C911397AD012115310509F1D901F3CFD1
:1058B0009D01DA013383228360817181860F971FF6
:1058C0008217930769F4EC0128813981260F371F6D
:1058D0002E5F3F4F318320838A819B819383828314
:1058E000452B29F4F093D706E093D60642C01396D1
:1058F000FC93EE931297ED01499159919E01240F6B
:10590000351FE217F30771F480819181840F951F91
:10591000029611969C938E938281938113969C9309
:105920008E931297E0E0F0E0D80112968D919C9151
:105930001397009719F0F8018C01F6CF8D919C9187
:1059400098012E5F3F4F820F931F2091D406309114
:10595000D5062817390769F4309729F41092D7062D
:105960001092D60602C0138212821093D5060093BD
:10597000D406DF91CF911F910F910895A0E0B0E080
:10598000E4ECFCE20C94452EEC01009721F4CB01F1
:105990000E94912BB8C0FC01E60FF71F9C0122501A
:1059A0003109E217F30708F4ACC0D9010D911C913D
:1059B000119706171707B0F00530110508F49FC0BE
:1059C000C80104978617970708F499C00250110977
:1059D000061B170B019311936D937C93CF010E94CB
:1059E000262C8DC05B01A01AB10A4C01800E911EBD
:1059F000A091D606B091D70640E050E0E12CF12C02
:105A0000109709F44AC0A815B905D1F56D907C909E
:105A10001197630182E0C80ED11CCA14DB0480F127
:105A2000A3014A195B096A0182E0C80ED11C1296D3
:105A3000BC9012971396AC91B5E0CB16D10440F010
:105A4000B282A38351834083D9016D937C930AC0B2
:105A50000E5F1F4FC301800F911FF9019183808357
:105A6000EB2DFA2FE114F10431F0D7011396FC93DA
:105A7000EE93129744C0F093D706E093D6063FC04A
:105A80008D919C9111974817590708F4AC017D013D
:105A900012960D90BC91A02DB3CF8091D406909119
:105AA000D50688159905E1F446175707C8F4809183
:105AB000280190912901009741F48DB79EB740913C
:105AC0002C0150912D01841B950BE817F907C8F4A0
:105AD000F093D506E093D406F901718360830FC07B
